{
  "_format": "hh-sol-artifact-1",
  "contractName": "MyEpicNFT",
  "sourceName": "contracts/MyEpicNFT.sol",
  "abi": [
    {
      "inputs": [],
      "stateMutability": "nonpayable",
      "type": "constructor"
    },
    {
      "anonymous": false,
      "inputs": [
        {
          "indexed": true,
          "internalType": "address",
          "name": "owner",
          "type": "address"
        },
        {
          "indexed": true,
          "internalType": "address",
          "name": "approved",
          "type": "address"
        },
        {
          "indexed": true,
          "internalType": "uint256",
          "name": "tokenId",
          "type": "uint256"
        }
      ],
      "name": "Approval",
      "type": "event"
    },
    {
      "anonymous": false,
      "inputs": [
        {
          "indexed": true,
          "internalType": "address",
          "name": "owner",
          "type": "address"
        },
        {
          "indexed": true,
          "internalType": "address",
          "name": "operator",
          "type": "address"
        },
        {
          "indexed": false,
          "internalType": "bool",
          "name": "approved",
          "type": "bool"
        }
      ],
      "name": "ApprovalForAll",
      "type": "event"
    },
    {
      "anonymous": false,
      "inputs": [
        {
          "indexed": false,
          "internalType": "address",
          "name": "sender",
          "type": "address"
        },
        {
          "indexed": false,
          "internalType": "uint256",
          "name": "tokenId",
          "type": "uint256"
        }
      ],
      "name": "NewNFTMinted",
      "type": "event"
    },
    {
      "anonymous": false,
      "inputs": [
        {
          "indexed": true,
          "internalType": "address",
          "name": "from",
          "type": "address"
        },
        {
          "indexed": true,
          "internalType": "address",
          "name": "to",
          "type": "address"
        },
        {
          "indexed": true,
          "internalType": "uint256",
          "name": "tokenId",
          "type": "uint256"
        }
      ],
      "name": "Transfer",
      "type": "event"
    },
    {
      "inputs": [
        {
          "internalType": "address",
          "name": "to",
          "type": "address"
        },
        {
          "internalType": "uint256",
          "name": "tokenId",
          "type": "uint256"
        }
      ],
      "name": "approve",
      "outputs": [],
      "stateMutability": "nonpayable",
      "type": "function"
    },
    {
      "inputs": [
        {
          "internalType": "address",
          "name": "owner",
          "type": "address"
        }
      ],
      "name": "balanceOf",
      "outputs": [
        {
          "internalType": "uint256",
          "name": "",
          "type": "uint256"
        }
      ],
      "stateMutability": "view",
      "type": "function"
    },
    {
      "inputs": [
        {
          "internalType": "uint256",
          "name": "tokenId",
          "type": "uint256"
        }
      ],
      "name": "getApproved",
      "outputs": [
        {
          "internalType": "address",
          "name": "",
          "type": "address"
        }
      ],
      "stateMutability": "view",
      "type": "function"
    },
    {
      "inputs": [
        {
          "internalType": "address",
          "name": "owner",
          "type": "address"
        },
        {
          "internalType": "address",
          "name": "operator",
          "type": "address"
        }
      ],
      "name": "isApprovedForAll",
      "outputs": [
        {
          "internalType": "bool",
          "name": "",
          "type": "bool"
        }
      ],
      "stateMutability": "view",
      "type": "function"
    },
    {
      "inputs": [],
      "name": "makeNFT",
      "outputs": [],
      "stateMutability": "nonpayable",
      "type": "function"
    },
    {
      "inputs": [],
      "name": "name",
      "outputs": [
        {
          "internalType": "string",
          "name": "",
          "type": "string"
        }
      ],
      "stateMutability": "view",
      "type": "function"
    },
    {
      "inputs": [],
      "name": "numberOfMintedNFTS",
      "outputs": [
        {
          "internalType": "uint256",
          "name": "",
          "type": "uint256"
        }
      ],
      "stateMutability": "view",
      "type": "function"
    },
    {
      "inputs": [
        {
          "internalType": "uint256",
          "name": "tokenId",
          "type": "uint256"
        }
      ],
      "name": "ownerOf",
      "outputs": [
        {
          "internalType": "address",
          "name": "",
          "type": "address"
        }
      ],
      "stateMutability": "view",
      "type": "function"
    },
    {
      "inputs": [
        {
          "internalType": "uint256",
          "name": "tokenId",
          "type": "uint256"
        },
        {
          "internalType": "uint256",
          "name": "wordNumber",
          "type": "uint256"
        }
      ],
      "name": "pickRandomWord",
      "outputs": [
        {
          "internalType": "string",
          "name": "",
          "type": "string"
        }
      ],
      "stateMutability": "view",
      "type": "function"
    },
    {
      "inputs": [
        {
          "internalType": "address",
          "name": "from",
          "type": "address"
        },
        {
          "internalType": "address",
          "name": "to",
          "type": "address"
        },
        {
          "internalType": "uint256",
          "name": "tokenId",
          "type": "uint256"
        }
      ],
      "name": "safeTransferFrom",
      "outputs": [],
      "stateMutability": "nonpayable",
      "type": "function"
    },
    {
      "inputs": [
        {
          "internalType": "address",
          "name": "from",
          "type": "address"
        },
        {
          "internalType": "address",
          "name": "to",
          "type": "address"
        },
        {
          "internalType": "uint256",
          "name": "tokenId",
          "type": "uint256"
        },
        {
          "internalType": "bytes",
          "name": "_data",
          "type": "bytes"
        }
      ],
      "name": "safeTransferFrom",
      "outputs": [],
      "stateMutability": "nonpayable",
      "type": "function"
    },
    {
      "inputs": [
        {
          "internalType": "address",
          "name": "operator",
          "type": "address"
        },
        {
          "internalType": "bool",
          "name": "approved",
          "type": "bool"
        }
      ],
      "name": "setApprovalForAll",
      "outputs": [],
      "stateMutability": "nonpayable",
      "type": "function"
    },
    {
      "inputs": [
        {
          "internalType": "bytes4",
          "name": "interfaceId",
          "type": "bytes4"
        }
      ],
      "name": "supportsInterface",
      "outputs": [
        {
          "internalType": "bool",
          "name": "",
          "type": "bool"
        }
      ],
      "stateMutability": "view",
      "type": "function"
    },
    {
      "inputs": [],
      "name": "symbol",
      "outputs": [
        {
          "internalType": "string",
          "name": "",
          "type": "string"
        }
      ],
      "stateMutability": "view",
      "type": "function"
    },
    {
      "inputs": [
        {
          "internalType": "uint256",
          "name": "tokenId",
          "type": "uint256"
        }
      ],
      "name": "tokenURI",
      "outputs": [
        {
          "internalType": "string",
          "name": "",
          "type": "string"
        }
      ],
      "stateMutability": "view",
      "type": "function"
    },
    {
      "inputs": [
        {
          "internalType": "address",
          "name": "from",
          "type": "address"
        },
        {
          "internalType": "address",
          "name": "to",
          "type": "address"
        },
        {
          "internalType": "uint256",
          "name": "tokenId",
          "type": "uint256"
        }
      ],
      "name": "transferFrom",
      "outputs": [],
      "stateMutability": "nonpayable",
      "type": "function"
    }
  ],
  "bytecode": "0x608060405260405180610160016040528061012f8152602001620040b861012f91396008908051906020019062000038929190620004e1565b5060405180608001604052806040518060400160405280600781526020017f4c75636172696f0000000000000000000000000000000000000000000000000081525081526020016040518060400160405280600781526020017f4a6f6c74656f6e0000000000000000000000000000000000000000000000000081525081526020016040518060400160405280600781526020017f476c6163656f6e0000000000000000000000000000000000000000000000000081525081526020016040518060400160405280600781526020017f50696b616368750000000000000000000000000000000000000000000000000081525081525060099060046200014092919062000572565b5060405180606001604052806040518060400160405280600481526020017f4d6567610000000000000000000000000000000000000000000000000000000081525081526020016040518060400160405280600581526020017f556c74726100000000000000000000000000000000000000000000000000000081525081526020016040518060400160405280600581526020017f5375706572000000000000000000000000000000000000000000000000000000815250815250600a9060036200020d929190620005d9565b5060405180608001604052806040518060400160405280600581526020017f436f6d626f00000000000000000000000000000000000000000000000000000081525081526020016040518060400160405280600581526020017f536c69646500000000000000000000000000000000000000000000000000000081525081526020016040518060400160405280600581526020017f50756e636800000000000000000000000000000000000000000000000000000081525081526020016040518060400160405280600481526020017f4b69636b00000000000000000000000000000000000000000000000000000000815250815250600b9060046200031592919062000572565b503480156200032357600080fd5b506040518060400160405280600a81526020017f4c75636172696f4e4654000000000000000000000000000000000000000000008152506040518060400160405280600481526020017f4c554341000000000000000000000000000000000000000000000000000000008152508160009080519060200190620003a8929190620004e1565b508060019080519060200190620003c1929190620004e1565b5050506200040f6040518060400160405280601881526020017f54686973206973206d79204e465420636f6e74726163742100000000000000008152506200041560201b620012331760201c565b620007fa565b620004b5816040516024016200042c91906200070e565b6040516020818303038152906040527f41304fac000000000000000000000000000000000000000000000000000000007bffffffffffffffffffffffffffffffffffffffffffffffffffffffff19166020820180517bffffffffffffffffffffffffffffffffffffffffffffffffffffffff8381831617835250505050620004b860201b60201c565b50565b60008151905060006a636f6e736f6c652e6c6f679050602083016000808483855afa5050505050565b828054620004ef9062000784565b90600052602060002090601f0160209004810192826200051357600085556200055f565b82601f106200052e57805160ff19168380011785556200055f565b828001600101855582156200055f579182015b828111156200055e57825182559160200191906001019062000541565b5b5090506200056e919062000640565b5090565b828054828255906000526020600020908101928215620005c6579160200282015b82811115620005c5578251829080519060200190620005b4929190620004e1565b509160200191906001019062000593565b5b509050620005d591906200065f565b5090565b8280548282559060005260206000209081019282156200062d579160200282015b828111156200062c5782518290805190602001906200061b929190620004e1565b5091602001919060010190620005fa565b5b5090506200063c91906200065f565b5090565b5b808211156200065b57600081600090555060010162000641565b5090565b5b8082111562000683576000818162000679919062000687565b5060010162000660565b5090565b508054620006959062000784565b6000825580601f10620006a95750620006ca565b601f016020900490600052602060002090810190620006c9919062000640565b5b50565b6000620006da8262000732565b620006e681856200073d565b9350620006f88185602086016200074e565b6200070381620007e9565b840191505092915050565b600060208201905081810360008301526200072a8184620006cd565b905092915050565b600081519050919050565b600082825260208201905092915050565b60005b838110156200076e57808201518184015260208101905062000751565b838111156200077e576000848401525b50505050565b600060028204905060018216806200079d57607f821691505b60208210811415620007b457620007b3620007ba565b5b50919050565b7f4e487b7100000000000000000000000000000000000000000000000000000000600052602260045260246000fd5b6000601f19601f8301169050919050565b6138ae806200080a6000396000f3fe608060405234801561001057600080fd5b50600436106100ff5760003560e01c806370a0823111610097578063b036b4bd11610066578063b036b4bd146102be578063b88d4fde146102c8578063c87b56dd146102e4578063e985e9c514610314576100ff565b806370a082311461022457806395d89b4114610254578063a22cb46514610272578063a75b34d51461028e576100ff565b8063095ea7b3116100d3578063095ea7b3146101a057806323b872dd146101bc57806342842e0e146101d85780636352211e146101f4576100ff565b8062c91ff71461010457806301ffc9a71461012257806306fdde0314610152578063081812fc14610170575b600080fd5b61010c610344565b604051610119919061339f565b60405180910390f35b61013c600480360381019061013791906124c6565b610355565b6040516101499190613124565b60405180910390f35b61015a610437565b604051610167919061313f565b60405180910390f35b61018a60048036038101906101859190612518565b6104c9565b6040516101979190613094565b60405180910390f35b6101ba60048036038101906101b5919061248a565b61054e565b005b6101d660048036038101906101d19190612384565b610666565b005b6101f260048036038101906101ed9190612384565b6106c6565b005b61020e60048036038101906102099190612518565b6106e6565b60405161021b9190613094565b60405180910390f35b61023e6004803603810190610239919061231f565b610798565b60405161024b919061339f565b60405180910390f35b61025c610850565b604051610269919061313f565b60405180910390f35b61028c6004803603810190610287919061244e565b6108e2565b005b6102a860048036038101906102a39190612541565b610a63565b6040516102b5919061313f565b60405180910390f35b6102c6610de8565b005b6102e260048036038101906102dd91906123d3565b610feb565b005b6102fe60048036038101906102f99190612518565b61104d565b60405161030b919061313f565b60405180910390f35b61032e60048036038101906103299190612348565b61119f565b60405161033b9190613124565b60405180910390f35b600061035060076112cc565b905090565b60007f80ac58cd000000000000000000000000000000000000000000000000000000007bffffffffffffffffffffffffffffffffffffffffffffffffffffffff1916827bffffffffffffffffffffffffffffffffffffffffffffffffffffffff1916148061042057507f5b5e139f000000000000000000000000000000000000000000000000000000007bffffffffffffffffffffffffffffffffffffffffffffffffffffffff1916827bffffffffffffffffffffffffffffffffffffffffffffffffffffffff1916145b80610430575061042f826112da565b5b9050919050565b6060600080546104469061363e565b80601f01602080910402602001604051908101604052809291908181526020018280546104729061363e565b80156104bf5780601f10610494576101008083540402835291602001916104bf565b820191906000526020600020905b8154815290600101906020018083116104a257829003601f168201915b5050505050905090565b60006104d482611344565b610513576040517f08c379a000000000000000000000000000000000000000000000000000000000815260040161050a906132ff565b60405180910390fd5b6004600083815260200190815260200160002060009054906101000a900473ffffffffffffffffffffffffffffffffffffffff169050919050565b6000610559826106e6565b90508073ffffffffffffffffffffffffffffffffffffffff168373ffffffffffffffffffffffffffffffffffffffff1614156105ca576040517f08c379a00000000000000000000000000000000000000000000000000000000081526004016105c19061335f565b60405180910390fd5b8073ffffffffffffffffffffffffffffffffffffffff166105e96113b0565b73ffffffffffffffffffffffffffffffffffffffff1614806106185750610617816106126113b0565b61119f565b5b610657576040517f08c379a000000000000000000000000000000000000000000000000000000000815260040161064e9061323f565b60405180910390fd5b61066183836113b8565b505050565b6106776106716113b0565b82611471565b6106b6576040517f08c379a00000000000000000000000000000000000000000000000000000000081526004016106ad9061337f565b60405180910390fd5b6106c183838361154f565b505050565b6106e183838360405180602001604052806000815250610feb565b505050565b6000806002600084815260200190815260200160002060009054906101000a900473ffffffffffffffffffffffffffffffffffffffff169050600073ffffffffffffffffffffffffffffffffffffffff168173ffffffffffffffffffffffffffffffffffffffff16141561078f576040517f08c379a00000000000000000000000000000000000000000000000000000000081526004016107869061327f565b60405180910390fd5b80915050919050565b60008073ffffffffffffffffffffffffffffffffffffffff168273ffffffffffffffffffffffffffffffffffffffff161415610809576040517f08c379a00000000000000000000000000000000000000000000000000000000081526004016108009061325f565b60405180910390fd5b600360008373ffffffffffffffffffffffffffffffffffffffff1673ffffffffffffffffffffffffffffffffffffffff168152602001908152602001600020549050919050565b60606001805461085f9061363e565b80601f016020809104026020016040519081016040528092919081815260200182805461088b9061363e565b80156108d85780601f106108ad576101008083540402835291602001916108d8565b820191906000526020600020905b8154815290600101906020018083116108bb57829003601f168201915b5050505050905090565b6108ea6113b0565b73ffffffffffffffffffffffffffffffffffffffff168273ffffffffffffffffffffffffffffffffffffffff161415610958576040517f08c379a000000000000000000000000000000000000000000000000000000000815260040161094f906131ff565b60405180910390fd5b80600560006109656113b0565b73ffffffffffffffffffffffffffffffffffffffff1673ffffffffffffffffffffffffffffffffffffffff16815260200190815260200160002060008473ffffffffffffffffffffffffffffffffffffffff1673ffffffffffffffffffffffffffffffffffffffff16815260200190815260200160002060006101000a81548160ff0219169083151502179055508173ffffffffffffffffffffffffffffffffffffffff16610a126113b0565b73ffffffffffffffffffffffffffffffffffffffff167f17307eab39ab6107e8899845ad3d59bd9653f200f220920489ca2b5937696c3183604051610a579190613124565b60405180910390a35050565b606081600081118015610a765750600481105b610a7f57600080fd5b6001831415610ba4576000610aba610a96866117ab565b604051602001610aa69190613050565b604051602081830303815290604052611958565b905060098054905081610acd91906136b9565b905060098181548110610b09577f4e487b7100000000000000000000000000000000000000000000000000000000600052603260045260246000fd5b906000526020600020018054610b1e9061363e565b80601f0160208091040260200160405190810160405280929190818152602001828054610b4a9061363e565b8015610b975780601f10610b6c57610100808354040283529160200191610b97565b820191906000526020600020905b815481529060010190602001808311610b7a57829003601f168201915b5050505050925050610de1565b6002831415610cc9576000610bdf610bbb866117ab565b604051602001610bcb9190612fe9565b604051602081830303815290604052611958565b9050600a8054905081610bf291906136b9565b9050600a8181548110610c2e577f4e487b7100000000000000000000000000000000000000000000000000000000600052603260045260246000fd5b906000526020600020018054610c439061363e565b80601f0160208091040260200160405190810160405280929190818152602001828054610c6f9061363e565b8015610cbc5780601f10610c9157610100808354040283529160200191610cbc565b820191906000526020600020905b815481529060010190602001808311610c9f57829003601f168201915b5050505050925050610de1565b6000610cfb610cd7866117ab565b604051602001610ce79190612fc7565b604051602081830303815290604052611958565b9050600b8054905081610d0e91906136b9565b9050600b8181548110610d4a577f4e487b7100000000000000000000000000000000000000000000000000000000600052603260045260246000fd5b906000526020600020018054610d5f9061363e565b80601f0160208091040260200160405190810160405280929190818152602001828054610d8b9061363e565b8015610dd85780601f10610dad57610100808354040283529160200191610dd8565b820191906000526020600020905b815481529060010190602001808311610dbb57829003601f168201915b50505050509250505b5092915050565b6032610df460076112cc565b10610dfe57600080fd5b6000610e0a60076112cc565b90506000610e19826001610a63565b90506000610e28836002610a63565b90506000610e37846003610a63565b90506000838383604051602001610e5093929190612f67565b60405160208183030381529060405290506000600882604051602001610e77929190612f98565b60405160208183030381529060405290506000610ebc83610e978461198b565b604051602001610ea892919061300b565b60405160208183030381529060405261198b565b9050600081604051602001610ed19190613072565b6040516020818303038152906040529050610f206040518060400160405280601581526020017f0a2d2d2d2d2d2d2d2d2d2d2d2d2d2d2d2d2d2d2d2d0000000000000000000000815250611233565b610f2981611233565b610f676040518060400160405280601581526020017f2d2d2d2d2d2d2d2d2d2d2d2d2d2d2d2d2d2d2d2d0a0000000000000000000000815250611233565b610f713389611b49565b610f7b8882611b67565b610f9e604051806060016040528060258152602001613814602591398933611bdb565b610fa86007611c7a565b7f1c05098ed1ff38e6238d2b1b04b2c7977d4c94ce651bda6473f9dba8dbf01da03389604051610fd99291906130fb565b60405180910390a15050505050505050565b610ffc610ff66113b0565b83611471565b61103b576040517f08c379a00000000000000000000000000000000000000000000000000000000081526004016110329061337f565b60405180910390fd5b61104784848484611c90565b50505050565b606061105882611344565b611097576040517f08c379a000000000000000000000000000000000000000000000000000000000815260040161108e906132df565b60405180910390fd5b60006006600084815260200190815260200160002080546110b79061363e565b80601f01602080910402602001604051908101604052809291908181526020018280546110e39061363e565b80156111305780601f1061110557610100808354040283529160200191611130565b820191906000526020600020905b81548152906001019060200180831161111357829003601f168201915b505050505090506000611141611cec565b905060008151141561115757819250505061119a565b60008251111561118c578082604051602001611174929190612f43565b6040516020818303038152906040529250505061119a565b61119584611d03565b925050505b919050565b6000600560008473ffffffffffffffffffffffffffffffffffffffff1673ffffffffffffffffffffffffffffffffffffffff16815260200190815260200160002060008373ffffffffffffffffffffffffffffffffffffffff1673ffffffffffffffffffffffffffffffffffffffff16815260200190815260200160002060009054906101000a900460ff16905092915050565b6112c981604051602401611247919061313f565b6040516020818303038152906040527f41304fac000000000000000000000000000000000000000000000000000000007bffffffffffffffffffffffffffffffffffffffffffffffffffffffff19166020820180517bffffffffffffffffffffffffffffffffffffffffffffffffffffffff8381831617835250505050611daa565b50565b600081600001549050919050565b60007f01ffc9a7000000000000000000000000000000000000000000000000000000007bffffffffffffffffffffffffffffffffffffffffffffffffffffffff1916827bffffffffffffffffffffffffffffffffffffffffffffffffffffffff1916149050919050565b60008073ffffffffffffffffffffffffffffffffffffffff166002600084815260200190815260200160002060009054906101000a900473ffffffffffffffffffffffffffffffffffffffff1673ffffffffffffffffffffffffffffffffffffffff1614159050919050565b600033905090565b816004600083815260200190815260200160002060006101000a81548173ffffffffffffffffffffffffffffffffffffffff021916908373ffffffffffffffffffffffffffffffffffffffff160217905550808273ffffffffffffffffffffffffffffffffffffffff1661142b836106e6565b73ffffffffffffffffffffffffffffffffffffffff167f8c5be1e5ebec7d5bd14f71427d1e84f3dd0314c0f7b2291e5b200ac8c7c3b92560405160405180910390a45050565b600061147c82611344565b6114bb576040517f08c379a00000000000000000000000000000000000000000000000000000000081526004016114b29061321f565b60405180910390fd5b60006114c6836106e6565b90508073ffffffffffffffffffffffffffffffffffffffff168473ffffffffffffffffffffffffffffffffffffffff16148061153557508373ffffffffffffffffffffffffffffffffffffffff1661151d846104c9565b73ffffffffffffffffffffffffffffffffffffffff16145b806115465750611545818561119f565b5b91505092915050565b8273ffffffffffffffffffffffffffffffffffffffff1661156f826106e6565b73ffffffffffffffffffffffffffffffffffffffff16146115c5576040517f08c379a00000000000000000000000000000000000000000000000000000000081526004016115bc9061331f565b60405180910390fd5b600073ffffffffffffffffffffffffffffffffffffffff168273ffffffffffffffffffffffffffffffffffffffff161415611635576040517f08c379a000000000000000000000000000000000000000000000000000000000815260040161162c906131df565b60405180910390fd5b611640838383611dd3565b61164b6000826113b8565b6001600360008573ffffffffffffffffffffffffffffffffffffffff1673ffffffffffffffffffffffffffffffffffffffff168152602001908152602001600020600082825461169b9190613554565b925050819055506001600360008473ffffffffffffffffffffffffffffffffffffffff1673ffffffffffffffffffffffffffffffffffffffff16815260200190815260200160002060008282546116f29190613473565b92505081905550816002600083815260200190815260200160002060006101000a81548173ffffffffffffffffffffffffffffffffffffffff021916908373ffffffffffffffffffffffffffffffffffffffff160217905550808273ffffffffffffffffffffffffffffffffffffffff168473ffffffffffffffffffffffffffffffffffffffff167fddf252ad1be2c89b69c2b068fc378daa952ba7f163c4a11628f55a4df523b3ef60405160405180910390a4505050565b606060008214156117f3576040518060400160405280600181526020017f30000000000000000000000000000000000000000000000000000000000000008152509050611953565b600082905060005b6000821461182557808061180e90613670565b915050600a8261181e91906134c9565b91506117fb565b60008167ffffffffffffffff811115611867577f4e487b7100000000000000000000000000000000000000000000000000000000600052604160045260246000fd5b6040519080825280601f01601f1916602001820160405280156118995781602001600182028036833780820191505090505b5090505b6000851461194c576001826118b29190613554565b9150600a856118c191906136b9565b60306118cd9190613473565b60f81b818381518110611909577f4e487b7100000000000000000000000000000000000000000000000000000000600052603260045260246000fd5b60200101907effffffffffffffffffffffffffffffffffffffffffffffffffffffffffffff1916908160001a905350600a8561194591906134c9565b945061189d565b8093505050505b919050565b60008160405160200161196b9190612f2c565b6040516020818303038152906040528051906020012060001c9050919050565b606060008251905060008114156119b45760405180602001604052806000815250915050611b44565b600060036002836119c59190613473565b6119cf91906134c9565b60046119db91906134fa565b905060006020826119ec9190613473565b67ffffffffffffffff811115611a2b577f4e487b7100000000000000000000000000000000000000000000000000000000600052604160045260246000fd5b6040519080825280601f01601f191660200182016040528015611a5d5781602001600182028036833780820191505090505b5090506000604051806060016040528060408152602001613839604091399050600181016020830160005b86811015611b015760038101905062ffffff818a015116603f8160121c168401518060081b905060ff603f83600c1c1686015116810190508060081b905060ff603f8360061c1686015116810190508060081b905060ff603f831686015116810190508060e01b90508084526004840193505050611a88565b506003860660018114611b1b5760028114611b2b57611b36565b613d3d60f01b6002830352611b36565b603d60f81b60018303525b508484525050819450505050505b919050565b611b63828260405180602001604052806000815250611dd8565b5050565b611b7082611344565b611baf576040517f08c379a0000000000000000000000000000000000000000000000000000000008152600401611ba69061329f565b60405180910390fd5b80600660008481526020019081526020016000209080519060200190611bd69291906121ab565b505050565b611c75838383604051602401611bf393929190613161565b6040516020818303038152906040527fe3849f79000000000000000000000000000000000000000000000000000000007bffffffffffffffffffffffffffffffffffffffffffffffffffffffff19166020820180517bffffffffffffffffffffffffffffffffffffffffffffffffffffffff8381831617835250505050611daa565b505050565b6001816000016000828254019250508190555050565b611c9b84848461154f565b611ca784848484611e33565b611ce6576040517f08c379a0000000000000000000000000000000000000000000000000000000008152600401611cdd9061319f565b60405180910390fd5b50505050565b606060405180602001604052806000815250905090565b6060611d0e82611344565b611d4d576040517f08c379a0000000000000000000000000000000000000000000000000000000008152600401611d449061333f565b60405180910390fd5b6000611d57611cec565b90506000815111611d775760405180602001604052806000815250611da2565b80611d81846117ab565b604051602001611d92929190612f43565b6040516020818303038152906040525b915050919050565b60008151905060006a636f6e736f6c652e6c6f679050602083016000808483855afa5050505050565b505050565b611de28383611fca565b611def6000848484611e33565b611e2e576040517f08c379a0000000000000000000000000000000000000000000000000000000008152600401611e259061319f565b60405180910390fd5b505050565b6000611e548473ffffffffffffffffffffffffffffffffffffffff16612198565b15611fbd578373ffffffffffffffffffffffffffffffffffffffff1663150b7a02611e7d6113b0565b8786866040518563ffffffff1660e01b8152600401611e9f94939291906130af565b602060405180830381600087803b158015611eb957600080fd5b505af1925050508015611eea57506040513d601f19601f82011682018060405250810190611ee791906124ef565b60015b611f6d573d8060008114611f1a576040519150601f19603f3d011682016040523d82523d6000602084013e611f1f565b606091505b50600081511415611f65576040517f08c379a0000000000000000000000000000000000000000000000000000000008152600401611f5c9061319f565b60405180910390fd5b805181602001fd5b63150b7a0260e01b7bffffffffffffffffffffffffffffffffffffffffffffffffffffffff1916817bffffffffffffffffffffffffffffffffffffffffffffffffffffffff191614915050611fc2565b600190505b949350505050565b600073ffffffffffffffffffffffffffffffffffffffff168273ffffffffffffffffffffffffffffffffffffffff16141561203a576040517f08c379a0000000000000000000000000000000000000000000000000000000008152600401612031906132bf565b60405180910390fd5b61204381611344565b15612083576040517f08c379a000000000000000000000000000000000000000000000000000000000815260040161207a906131bf565b60405180910390fd5b61208f60008383611dd3565b6001600360008473ffffffffffffffffffffffffffffffffffffffff1673ffffffffffffffffffffffffffffffffffffffff16815260200190815260200160002060008282546120df9190613473565b92505081905550816002600083815260200190815260200160002060006101000a81548173ffffffffffffffffffffffffffffffffffffffff021916908373ffffffffffffffffffffffffffffffffffffffff160217905550808273ffffffffffffffffffffffffffffffffffffffff16600073ffffffffffffffffffffffffffffffffffffffff167fddf252ad1be2c89b69c2b068fc378daa952ba7f163c4a11628f55a4df523b3ef60405160405180910390a45050565b600080823b905060008111915050919050565b8280546121b79061363e565b90600052602060002090601f0160209004810192826121d95760008555612220565b82601f106121f257805160ff1916838001178555612220565b82800160010185558215612220579182015b8281111561221f578251825591602001919060010190612204565b5b50905061222d9190612231565b5090565b5b8082111561224a576000816000905550600101612232565b5090565b600061226161225c846133eb565b6133ba565b90508281526020810184848401111561227957600080fd5b6122848482856135fc565b509392505050565b60008135905061229b816137b7565b92915050565b6000813590506122b0816137ce565b92915050565b6000813590506122c5816137e5565b92915050565b6000815190506122da816137e5565b92915050565b600082601f8301126122f157600080fd5b813561230184826020860161224e565b91505092915050565b600081359050612319816137fc565b92915050565b60006020828403121561233157600080fd5b600061233f8482850161228c565b91505092915050565b6000806040838503121561235b57600080fd5b60006123698582860161228c565b925050602061237a8582860161228c565b9150509250929050565b60008060006060848603121561239957600080fd5b60006123a78682870161228c565b93505060206123b88682870161228c565b92505060406123c98682870161230a565b9150509250925092565b600080600080608085870312156123e957600080fd5b60006123f78782880161228c565b94505060206124088782880161228c565b93505060406124198782880161230a565b925050606085013567ffffffffffffffff81111561243657600080fd5b612442878288016122e0565b91505092959194509250565b6000806040838503121561246157600080fd5b600061246f8582860161228c565b9250506020612480858286016122a1565b9150509250929050565b6000806040838503121561249d57600080fd5b60006124ab8582860161228c565b92505060206124bc8582860161230a565b9150509250929050565b6000602082840312156124d857600080fd5b60006124e6848285016122b6565b91505092915050565b60006020828403121561250157600080fd5b600061250f848285016122cb565b91505092915050565b60006020828403121561252a57600080fd5b60006125388482850161230a565b91505092915050565b6000806040838503121561255457600080fd5b60006125628582860161230a565b92505060206125738582860161230a565b9150509250929050565b61258681613588565b82525050565b6125958161359a565b82525050565b60006125a682613430565b6125b08185613446565b93506125c081856020860161360b565b6125c9816137a6565b840191505092915050565b60006125df8261343b565b6125e98185613457565b93506125f981856020860161360b565b612602816137a6565b840191505092915050565b60006126188261343b565b6126228185613468565b935061263281856020860161360b565b80840191505092915050565b6000815461264b8161363e565b6126558186613468565b945060018216600081146126705760018114612681576126b4565b60ff198316865281860193506126b4565b61268a8561341b565b60005b838110156126ac5781548189015260018201915060208101905061268d565b838801955050505b50505092915050565b60006126ca603283613457565b91507f4552433732313a207472616e7366657220746f206e6f6e20455243373231526560008301527f63656976657220696d706c656d656e74657200000000000000000000000000006020830152604082019050919050565b6000612730601c83613457565b91507f4552433732313a20746f6b656e20616c7265616479206d696e746564000000006000830152602082019050919050565b6000612770600a83613468565b91507f54484952445f574f5244000000000000000000000000000000000000000000006000830152600a82019050919050565b60006127b0602483613457565b91507f4552433732313a207472616e7366657220746f20746865207a65726f2061646460008301527f72657373000000000000000000000000000000000000000000000000000000006020830152604082019050919050565b6000612816601983613457565b91507f4552433732313a20617070726f766520746f2063616c6c6572000000000000006000830152602082019050919050565b6000612856606383613468565b91507f222c20226465736372697074696f6e223a20224120686967686c79206163636c60008301527f61696d656420636f6c6c656374696f6e206f6620737175617265732e222c202260208301527f696d616765223a2022646174613a696d6167652f7376672b786d6c3b6261736560408301527f36342c00000000000000000000000000000000000000000000000000000000006060830152606382019050919050565b6000612908600b83613468565b91507f5345434f4e445f574f52440000000000000000000000000000000000000000006000830152600b82019050919050565b6000612948602c83613457565b91507f4552433732313a206f70657261746f7220717565727920666f72206e6f6e657860008301527f697374656e7420746f6b656e00000000000000000000000000000000000000006020830152604082019050919050565b60006129ae600d83613468565b91507f3c2f746578743e3c2f7376673e000000000000000000000000000000000000006000830152600d82019050919050565b60006129ee603883613457565b91507f4552433732313a20617070726f76652063616c6c6572206973206e6f74206f7760008301527f6e6572206e6f7220617070726f76656420666f7220616c6c00000000000000006020830152604082019050919050565b6000612a54602a83613457565b91507f4552433732313a2062616c616e636520717565727920666f7220746865207a6560008301527f726f2061646472657373000000000000000000000000000000000000000000006020830152604082019050919050565b6000612aba602983613457565b91507f4552433732313a206f776e657220717565727920666f72206e6f6e657869737460008301527f656e7420746f6b656e00000000000000000000000000000000000000000000006020830152604082019050919050565b6000612b20602e83613457565b91507f45524337323155524953746f726167653a2055524920736574206f66206e6f6e60008301527f6578697374656e7420746f6b656e0000000000000000000000000000000000006020830152604082019050919050565b6000612b86600283613468565b91507f227d0000000000000000000000000000000000000000000000000000000000006000830152600282019050919050565b6000612bc6602083613457565b91507f4552433732313a206d696e7420746f20746865207a65726f20616464726573736000830152602082019050919050565b6000612c06603183613457565b91507f45524337323155524953746f726167653a2055524920717565727920666f722060008301527f6e6f6e6578697374656e7420746f6b656e0000000000000000000000000000006020830152604082019050919050565b6000612c6c602c83613457565b91507f4552433732313a20617070726f76656420717565727920666f72206e6f6e657860008301527f697374656e7420746f6b656e00000000000000000000000000000000000000006020830152604082019050919050565b6000612cd2602983613457565b91507f4552433732313a207472616e73666572206f6620746f6b656e2074686174206960008301527f73206e6f74206f776e00000000000000000000000000000000000000000000006020830152604082019050919050565b6000612d38602f83613457565b91507f4552433732314d657461646174613a2055524920717565727920666f72206e6f60008301527f6e6578697374656e7420746f6b656e00000000000000000000000000000000006020830152604082019050919050565b6000612d9e600a83613468565b91507f7b226e616d65223a2022000000000000000000000000000000000000000000006000830152600a82019050919050565b6000612dde602183613457565b91507f4552433732313a20617070726f76616c20746f2063757272656e74206f776e6560008301527f72000000000000000000000000000000000000000000000000000000000000006020830152604082019050919050565b6000612e44600a83613468565b91507f46495253545f574f5244000000000000000000000000000000000000000000006000830152600a82019050919050565b6000612e84601d83613468565b91507f646174613a6170706c69636174696f6e2f6a736f6e3b6261736536342c0000006000830152601d82019050919050565b6000612ec4603183613457565b91507f4552433732313a207472616e736665722063616c6c6572206973206e6f74206f60008301527f776e6572206e6f7220617070726f7665640000000000000000000000000000006020830152604082019050919050565b612f26816135f2565b82525050565b6000612f38828461260d565b915081905092915050565b6000612f4f828561260d565b9150612f5b828461260d565b91508190509392505050565b6000612f73828661260d565b9150612f7f828561260d565b9150612f8b828461260d565b9150819050949350505050565b6000612fa4828561263e565b9150612fb0828461260d565b9150612fbb826129a1565b91508190509392505050565b6000612fd282612763565b9150612fde828461260d565b915081905092915050565b6000612ff4826128fb565b9150613000828461260d565b915081905092915050565b600061301682612d91565b9150613022828561260d565b915061302d82612849565b9150613039828461260d565b915061304482612b79565b91508190509392505050565b600061305b82612e37565b9150613067828461260d565b915081905092915050565b600061307d82612e77565b9150613089828461260d565b915081905092915050565b60006020820190506130a9600083018461257d565b92915050565b60006080820190506130c4600083018761257d565b6130d1602083018661257d565b6130de6040830185612f1d565b81810360608301526130f0818461259b565b905095945050505050565b6000604082019050613110600083018561257d565b61311d6020830184612f1d565b9392505050565b6000602082019050613139600083018461258c565b92915050565b6000602082019050818103600083015261315981846125d4565b905092915050565b6000606082019050818103600083015261317b81866125d4565b905061318a6020830185612f1d565b613197604083018461257d565b949350505050565b600060208201905081810360008301526131b8816126bd565b9050919050565b600060208201905081810360008301526131d881612723565b9050919050565b600060208201905081810360008301526131f8816127a3565b9050919050565b6000602082019050818103600083015261321881612809565b9050919050565b600060208201905081810360008301526132388161293b565b9050919050565b60006020820190508181036000830152613258816129e1565b9050919050565b6000602082019050818103600083015261327881612a47565b9050919050565b6000602082019050818103600083015261329881612aad565b9050919050565b600060208201905081810360008301526132b881612b13565b9050919050565b600060208201905081810360008301526132d881612bb9565b9050919050565b600060208201905081810360008301526132f881612bf9565b9050919050565b6000602082019050818103600083015261331881612c5f565b9050919050565b6000602082019050818103600083015261333881612cc5565b9050919050565b6000602082019050818103600083015261335881612d2b565b9050919050565b6000602082019050818103600083015261337881612dd1565b9050919050565b6000602082019050818103600083015261339881612eb7565b9050919050565b60006020820190506133b46000830184612f1d565b92915050565b6000604051905081810181811067ffffffffffffffff821117156133e1576133e0613777565b5b8060405250919050565b600067ffffffffffffffff82111561340657613405613777565b5b601f19601f8301169050602081019050919050565b60008190508160005260206000209050919050565b600081519050919050565b600081519050919050565b600082825260208201905092915050565b600082825260208201905092915050565b600081905092915050565b600061347e826135f2565b9150613489836135f2565b9250827fffffffffffffffffffffffffffffffffffffffffffffffffffffffffffffffff038211156134be576134bd6136ea565b5b828201905092915050565b60006134d4826135f2565b91506134df836135f2565b9250826134ef576134ee613719565b5b828204905092915050565b6000613505826135f2565b9150613510836135f2565b9250817fffffffffffffffffffffffffffffffffffffffffffffffffffffffffffffffff0483118215151615613549576135486136ea565b5b828202905092915050565b600061355f826135f2565b915061356a836135f2565b92508282101561357d5761357c6136ea565b5b828203905092915050565b6000613593826135d2565b9050919050565b60008115159050919050565b60007fffffffff0000000000000000000000000000000000000000000000000000000082169050919050565b600073ffffffffffffffffffffffffffffffffffffffff82169050919050565b6000819050919050565b82818337600083830152505050565b60005b8381101561362957808201518184015260208101905061360e565b83811115613638576000848401525b50505050565b6000600282049050600182168061365657607f821691505b6020821081141561366a57613669613748565b5b50919050565b600061367b826135f2565b91507fffffffffffffffffffffffffffffffffffffffffffffffffffffffffffffffff8214156136ae576136ad6136ea565b5b600182019050919050565b60006136c4826135f2565b91506136cf836135f2565b9250826136df576136de613719565b5b828206905092915050565b7f4e487b7100000000000000000000000000000000000000000000000000000000600052601160045260246000fd5b7f4e487b7100000000000000000000000000000000000000000000000000000000600052601260045260246000fd5b7f4e487b7100000000000000000000000000000000000000000000000000000000600052602260045260246000fd5b7f4e487b7100000000000000000000000000000000000000000000000000000000600052604160045260246000fd5b6000601f19601f8301169050919050565b6137c081613588565b81146137cb57600080fd5b50565b6137d78161359a565b81146137e257600080fd5b50565b6137ee816135a6565b81146137f957600080fd5b50565b613805816135f2565b811461381057600080fd5b5056fe416e204e465420772f20494420257320686173206265656e206d696e74656420746f2025734142434445464748494a4b4c4d4e4f505152535455565758595a6162636465666768696a6b6c6d6e6f707172737475767778797a303132333435363738392b2fa264697066735822122092a4d94e6339dc2a6c4cdcac521a76eaee667e4e723f062f1454a6f30fcef47964736f6c634300080000333c73766720786d6c6e733d27687474703a2f2f7777772e77332e6f72672f323030302f73766727207072657365727665417370656374526174696f3d27784d696e594d696e206d656574272076696577426f783d273020302033353020333530273e3c7374796c653e2e62617365207b2066696c6c3a2077686974653b20666f6e742d66616d696c793a2073657269663b20666f6e742d73697a653a20323470783b207d3c2f7374796c653e3c726563742077696474683d273130302527206865696768743d2731303025272066696c6c3d27626c61636b27202f3e3c7465787420783d273530252720793d273530252720636c6173733d27626173652720646f6d696e616e742d626173656c696e653d276d6964646c652720746578742d616e63686f723d276d6964646c65273e",
  "linkReferences": {},
  "deployedLinkReferences": {}
}